{
  "_format": "hh-sol-artifact-1",
  "contractName": "Fixed",
  "sourceName": "contracts/Libraries/Fixed.sol",
  "abi": [
    {
      "inputs": [
        {
          "internalType": "uint256[2]",
          "name": "values",
          "type": "uint256[2]"
        }
      ],
      "name": "addArray",
      "outputs": [
        {
          "internalType": "uint256",
          "name": "",
          "type": "uint256"
        }
      ],
      "stateMutability": "pure",
      "type": "function"
    },
    {
      "inputs": [
        {
          "components": [
            {
              "internalType": "uint256",
              "name": "a",
              "type": "uint256"
            },
            {
              "internalType": "uint256",
              "name": "b",
              "type": "uint256"
            }
          ],
          "internalType": "struct Fixed.Struct",
          "name": "values",
          "type": "tuple"
        }
      ],
      "name": "addStruct",
      "outputs": [
        {
          "internalType": "uint256",
          "name": "",
          "type": "uint256"
        }
      ],
      "stateMutability": "pure",
      "type": "function"
    }
  ],
  "bytecode": "0x608060405234801561001057600080fd5b506103b8806100206000396000f3fe608060405234801561001057600080fd5b50600436106100365760003560e01c806350527d6e1461003b578063e95366181461006b575b600080fd5b61005560048036038101906100509190610223565b61009b565b604051610062919061025f565b60405180910390f35b610085600480360381019061008091906102a1565b6100b8565b604051610092919061025f565b60405180910390f35b6000816020015182600001516100b191906102fd565b9050919050565b6000816001600281106100ce576100cd610353565b5b6020020135826000600281106100e7576100e6610353565b5b60200201356100f691906102fd565b9050919050565b6000604051905090565b600080fd5b600080fd5b6000601f19601f8301169050919050565b7f4e487b7100000000000000000000000000000000000000000000000000000000600052604160045260246000fd5b61015a82610111565b810181811067ffffffffffffffff8211171561017957610178610122565b5b80604052505050565b600061018c6100fd565b90506101988282610151565b919050565b6000819050919050565b6101b08161019d565b81146101bb57600080fd5b50565b6000813590506101cd816101a7565b92915050565b6000604082840312156101e9576101e861010c565b5b6101f36040610182565b90506000610203848285016101be565b6000830152506020610217848285016101be565b60208301525092915050565b60006040828403121561023957610238610107565b5b6000610247848285016101d3565b91505092915050565b6102598161019d565b82525050565b60006020820190506102746000830184610250565b92915050565b600080fd5b60008190508260206002028201111561029b5761029a61027a565b5b92915050565b6000604082840312156102b7576102b6610107565b5b60006102c58482850161027f565b91505092915050565b7f4e487b7100000000000000000000000000000000000000000000000000000000600052601160045260246000fd5b60006103088261019d565b91506103138361019d565b9250827fffffffffffffffffffffffffffffffffffffffffffffffffffffffffffffffff03821115610348576103476102ce565b5b828201905092915050565b7f4e487b7100000000000000000000000000000000000000000000000000000000600052603260045260246000fdfea2646970667358221220e9425b7699f274511c172cfff65a57757fc759403c2556e04fe8696671262d4a64736f6c634300080b0033",
  "linkReferences": {},
  "deployedLinkReferences": {}
}